{"abi":[{"type":"function","name":"owner","inputs":[],"outputs":[{"name":"","type":"address","internalType":"address"}],"stateMutability":"view"},{"type":"function","name":"rescueERC20","inputs":[{"name":"tokenContract","type":"address","internalType":"contract IERC20"},{"name":"to","type":"address","internalType":"address"},{"name":"amount","type":"uint256","internalType":"uint256"}],"outputs":[],"stateMutability":"nonpayable"},{"type":"function","name":"rescuer","inputs":[],"outputs":[{"name":"","type":"address","internalType":"address"}],"stateMutability":"view"},{"type":"function","name":"transferOwnership","inputs":[{"name":"newOwner","type":"address","internalType":"address"}],"outputs":[],"stateMutability":"nonpayable"},{"type":"function","name":"updateRescuer","inputs":[{"name":"newRescuer","type":"address","internalType":"address"}],"outputs":[],"stateMutability":"nonpayable"},{"type":"event","name":"OwnershipTransferred","inputs":[{"name":"previousOwner","type":"address","indexed":false,"internalType":"address"},{"name":"newOwner","type":"address","indexed":false,"internalType":"address"}],"anonymous":false},{"type":"event","name":"RescuerChanged","inputs":[{"name":"newRescuer","type":"address","indexed":true,"internalType":"address"}],"anonymous":false}],"bytecode":{"object":"0x608060405234801561001057600080fd5b5061001a3361001f565b610041565b600080546001600160a01b0319166001600160a01b0392909216919091179055565b610766806100506000396000f3fe608060405234801561001057600080fd5b50600436106100575760003560e01c80632ab600451461005c57806338a63183146100845780638da5cb5b146100a8578063b2118a8d146100b0578063f2fde38b146100e6575b600080fd5b6100826004803603602081101561007257600080fd5b50356001600160a01b031661010c565b005b61008c6101fa565b604080516001600160a01b039092168252519081900360200190f35b61008c610209565b610082600480360360608110156100c657600080fd5b506001600160a01b03813581169160208101359091169060400135610218565b610082600480360360208110156100fc57600080fd5b50356001600160a01b031661027a565b6000546001600160a01b0316331461016b576040805162461bcd60e51b815260206004820181905260248201527f4f776e61626c653a2063616c6c6572206973206e6f7420746865206f776e6572604482015290519081900360640190fd5b6001600160a01b0381166101b05760405162461bcd60e51b815260040180806020018281038252602a8152602001806106b9602a913960400191505060405180910390fd5b600180546001600160a01b0319166001600160a01b0383169081179091556040517fe475e580d85111348e40d8ca33cfdd74c30fe1655c2d8537a13abc10065ffa5a90600090a250565b6001546001600160a01b031690565b6000546001600160a01b031690565b6001546001600160a01b031633146102615760405162461bcd60e51b81526004018080602001828103825260248152602001806106e36024913960400191505060405180910390fd5b6102756001600160a01b0384168383610372565b505050565b6000546001600160a01b031633146102d9576040805162461bcd60e51b815260206004820181905260248201527f4f776e61626c653a2063616c6c6572206973206e6f7420746865206f776e6572604482015290519081900360640190fd5b6001600160a01b03811661031e5760405162461bcd60e51b81526004018080602001828103825260268152602001806106936026913960400191505060405180910390fd5b600054604080516001600160a01b039283168152918316602083015280517f8be0079c531659141344cd1fd0a4f28419497f9722a3daafe3b4186f6b6457e09281900390910190a161036f816103c4565b50565b604080516001600160a01b038416602482015260448082018490528251808303909101815260649091019091526020810180516001600160e01b031663a9059cbb60e01b1790526102759084906103e6565b600080546001600160a01b0319166001600160a01b0392909216919091179055565b606061043b826040518060400160405280602081526020017f5361666545524332303a206c6f772d6c6576656c2063616c6c206661696c6564815250856001600160a01b03166104979092919063ffffffff16565b8051909150156102755780806020019051602081101561045a57600080fd5b50516102755760405162461bcd60e51b815260040180806020018281038252602a815260200180610707602a913960400191505060405180910390fd5b60606104a684846000856104ae565b949350505050565b60606104b985610659565b61050a576040805162461bcd60e51b815260206004820152601d60248201527f416464726573733a2063616c6c20746f206e6f6e2d636f6e7472616374000000604482015290519081900360640190fd5b60006060866001600160a01b031685876040518082805190602001908083835b602083106105495780518252601f19909201916020918201910161052a565b6001836020036101000a03801982511681845116808217855250505050505090500191505060006040518083038185875af1925050503d80600081146105ab576040519150601f19603f3d011682016040523d82523d6000602084013e6105b0565b606091505b509150915081156105c45791506104a69050565b8051156105d45780518082602001fd5b8360405162461bcd60e51b81526004018080602001828103825283818151815260200191508051906020019080838360005b8381101561061e578181015183820152602001610606565b50505050905090810190601f16801561064b5780820380516001836020036101000a031916815260200191505b509250505060405180910390fd5b6000813f7fc5d2460186f7233c927e7db2dcc703c0e500b653ca82273b7bfad8045d85a4708181148015906104a657505015159291505056fe4f776e61626c653a206e6577206f776e657220697320746865207a65726f2061646472657373526573637561626c653a206e6577207265736375657220697320746865207a65726f2061646472657373526573637561626c653a2063616c6c6572206973206e6f742074686520726573637565725361666545524332303a204552433230206f7065726174696f6e20646964206e6f742073756363656564a2646970667358221220034a743b4904d69a8abc1e25db6ede311939233fca7da96197561f1287a9f63564736f6c634300060c0033","linkReferences":{}},"methodIdentifiers":{"owner()":"8da5cb5b","rescueERC20(address,address,uint256)":"b2118a8d","rescuer()":"38a63183","transferOwnership(address)":"f2fde38b","updateRescuer(address)":"2ab60045"},"id":7}