{"abi":[{"type":"function","name":"receiveMessage","inputs":[{"name":"message","type":"bytes","internalType":"bytes"},{"name":"attestation","type":"bytes","internalType":"bytes"}],"outputs":[{"name":"","type":"bool","internalType":"bool"}],"stateMutability":"nonpayable"},{"type":"event","name":"MessageReceived","inputs":[{"name":"token","type":"address","indexed":true,"internalType":"address"},{"name":"recipient","type":"address","indexed":true,"internalType":"address"},{"name":"amount","type":"uint256","indexed":false,"internalType":"uint256"}],"anonymous":false}],"bytecode":{"object":"0x6080806040523461001657610233908161001c8239f35b600080fdfe608060408181526004918236101561001657600080fd5b600090813560e01c6357ecfd281461002d57600080fd5b346101b257826003193601126101b25767ffffffffffffffff84358181116101ae5761005c90369087016101b6565b90926024358381116101aa5761007590369089016101b6565b9050156101735750826060918101031261016f57610092826101e9565b90846100a0602085016101e9565b6001600160a01b0390811695931693013591833b1561016c578551916340c10f1960e01b83528588840152836024840152818360448183895af180156101625761011a575b60208787877fe355996e2996142ac85dc67216bbb3fc359221d123a11cdfeee89bc680e9970884898551908152a35160018152f35b821161014f5750845260209450847fe355996e2996142ac85dc67216bbb3fc359221d123a11cdfeee89bc680e99708386100e5565b634e487b7160e01b815260418752602490fd5b87513d84823e3d90fd5b80fd5b8280fd5b62461bcd60e51b8152602087820152601360248201527236b4b9b9b4b7339030ba3a32b9ba30ba34b7b760691b6044820152606490fd5b8580fd5b8380fd5b5080fd5b9181601f840112156101e45782359167ffffffffffffffff83116101e457602083818601950101116101e457565b600080fd5b35906001600160a01b03821682036101e45756fea26469706673582212208966ffbb574e73ceac41abe06d2201f3a1dc707af05fd94fcff27152dbae9bb164736f6c63430008170033","linkReferences":{}},"methodIdentifiers":{"receiveMessage(bytes,bytes)":"57ecfd28"},"id":0}