{"abi":[{"type":"function","name":"receiveMessage","inputs":[{"name":"message","type":"bytes","internalType":"bytes"},{"name":"attestation","type":"bytes","internalType":"bytes"}],"outputs":[{"name":"","type":"bool","internalType":"bool"}],"stateMutability":"nonpayable"}],"bytecode":{"object":"0x6080806040523461001657610207908161001c8239f35b600080fdfe608060408181526004918236101561001657600080fd5b600090813560e01c6357ecfd281461002d57600080fd5b3461018657826003193601126101865767ffffffffffffffff9084358281116101825761005d903690870161018a565b909160243584811161017e57610076903690890161018a565b9050156101475750816060918101031261014357610093816101bd565b61009f602083016101bd565b6001600160a01b039273cccccccccccccccccccccccccccccccccccc000191823b1561013f5792868593896064948399988d9b9883519c8d998a98631b66828360e01b8a521690880152166024860152013560448401525af180156101355761010d575b6020845160018152f35b82116101225750602092508152388080610103565b634e487b7160e01b815260418452602490fd5b84513d84823e3d90fd5b8680fd5b8280fd5b62461bcd60e51b8152602087820152601360248201527236b4b9b9b4b7339030ba3a32b9ba30ba34b7b760691b6044820152606490fd5b8580fd5b8380fd5b5080fd5b9181601f840112156101b85782359167ffffffffffffffff83116101b857602083818601950101116101b857565b600080fd5b35906001600160a01b03821682036101b85756fea26469706673582212208d0784f429002c6bcc2aa32b0a2a21892d500bbb0c42c3fce16abe80fd27b9f664736f6c63430008170033","linkReferences":{}},"methodIdentifiers":{"receiveMessage(bytes,bytes)":"57ecfd28"},"id":0}