{"abi":[{"type":"receive","stateMutability":"payable"},{"type":"function","name":"swap","inputs":[{"name":"execution","type":"tuple","internalType":"struct MockKyberSwapRouter.SwapExecutionParams","components":[{"name":"callTarget","type":"address","internalType":"address"},{"name":"approveTarget","type":"address","internalType":"address"},{"name":"targetData","type":"bytes","internalType":"bytes"},{"name":"desc","type":"tuple","internalType":"struct MockKyberSwapRouter.SwapDescriptionV2","components":[{"name":"srcToken","type":"address","internalType":"address"},{"name":"dstToken","type":"address","internalType":"address"},{"name":"srcReceivers","type":"address[]","internalType":"address[]"},{"name":"srcAmounts","type":"uint256[]","internalType":"uint256[]"},{"name":"feeReceivers","type":"address[]","internalType":"address[]"},{"name":"feeAmounts","type":"uint256[]","internalType":"uint256[]"},{"name":"dstReceiver","type":"address","internalType":"address"},{"name":"amount","type":"uint256","internalType":"uint256"},{"name":"minReturnAmount","type":"uint256","internalType":"uint256"},{"name":"flags","type":"uint256","internalType":"uint256"},{"name":"permit","type":"bytes","internalType":"bytes"}]},{"name":"clientData","type":"bytes","internalType":"bytes"}]}],"outputs":[{"name":"returnAmount","type":"uint256","internalType":"uint256"},{"name":"gasUsed","type":"uint256","internalType":"uint256"}],"stateMutability":"payable"}],"bytecode":{"object":"0x60808060405234601557610430908161001b8239f35b600080fdfe608080604052600436101561001d575b50361561001b57600080fd5b005b600090813560e01c63e21fd0e914610035575061000f565b60203660031901126103a55760043567ffffffffffffffff8111610241578036039060a06003198301126103a15760648101359161016219018212156103a1570190600482019073eeeeeeeeeeeeeeeeeeeeeeeeeeeeeeeeeeeeeeee6001600160a01b036100a2846103a9565b160361028257505060e48101353403610245575b816024820173eeeeeeeeeeeeeeeeeeeeeeeeeeeeeeeeeeeeeeee6001600160a01b036100e1836103a9565b16036101b057508080806001600160a01b036100ff60c487016103a9565b16610104860135905af13d156101ab573d67ffffffffffffffff81116101975760405190610137601f8201601f1916602001836103c2565b81528360203d92013e5b1561015b576040915b610104835192013582526020820152f35b60405162461bcd60e51b81526020600482015260146024820152731b985d1a5d99481bdd5d1c1d5d0819985a5b195960621b6044820152606490fd5b634e487b7160e01b84526041600452602484fd5b610141565b6001600160a01b03906101c2906103a9565b166101cf60c484016103a9565b90803b15610241576040516340c10f1960e01b81526001600160a01b03909216600483015261010484013560248301529093829185916044918391905af19283156102345781604094610224575b505061014a565b61022d916103c2565b388161021d565b50604051903d90823e3d90fd5b8280fd5b60405162461bcd60e51b81526020600482015260156024820152740dcc2e8d2ecca40d2dce0eae840dad2e6dac2e8c6d605b1b6044820152606490fd5b3461035f575082906020906001600160a01b039061029f906103a9565b166064604051809481936323b872dd60e01b835233600484015230602484015260e488013560448401525af1908115610354578391610319575b506100b65760405162461bcd60e51b81526020600482015260136024820152721d1c985b9cd9995c919c9bdb4819985a5b1959606a1b6044820152606490fd5b90506020813d60201161034c575b81610334602093836103c2565b810103126102415751801515810361024157386102d9565b3d9150610327565b6040513d85823e3d90fd5b62461bcd60e51b815260206004820152601760248201527f756e6578706563746564206e61746976652076616c75650000000000000000006044820152606490fd5b8380fd5b5080fd5b356001600160a01b03811681036103bd5790565b600080fd5b90601f8019910116810190811067ffffffffffffffff8211176103e457604052565b634e487b7160e01b600052604160045260246000fdfea264697066735822122013acb51beb26a2c1a3444d94fa51cb5af2d120fd78f47c69f5eb9414ad780ac264736f6c634300081c0033","linkReferences":{}},"methodIdentifiers":{"swap((address,address,bytes,(address,address,address[],uint256[],address[],uint256[],address,uint256,uint256,uint256,bytes),bytes))":"e21fd0e9"},"id":0}