{"abi":[{"type":"constructor","inputs":[{"name":"usdcAddress","type":"address","internalType":"address"}],"stateMutability":"nonpayable"},{"type":"function","name":"batchedDepositWithPermit","inputs":[{"name":"deposits","type":"tuple[]","internalType":"struct MockHyperliquidBridge2.DepositWithPermit[]","components":[{"name":"user","type":"address","internalType":"address"},{"name":"usd","type":"uint64","internalType":"uint64"},{"name":"deadline","type":"uint64","internalType":"uint64"},{"name":"signature","type":"tuple","internalType":"struct MockHyperliquidBridge2.Signature","components":[{"name":"r","type":"uint256","internalType":"uint256"},{"name":"s","type":"uint256","internalType":"uint256"},{"name":"v","type":"uint8","internalType":"uint8"}]}]}],"outputs":[],"stateMutability":"nonpayable"},{"type":"function","name":"release","inputs":[{"name":"user","type":"address","internalType":"address"},{"name":"usd","type":"uint64","internalType":"uint64"}],"outputs":[],"stateMutability":"nonpayable"},{"type":"function","name":"usdcToken","inputs":[],"outputs":[{"name":"","type":"address","internalType":"contract IERC20PermitMinimal"}],"stateMutability":"view"},{"type":"event","name":"FailedPermitDeposit","inputs":[{"name":"user","type":"address","indexed":false,"internalType":"address"},{"name":"usd","type":"uint64","indexed":false,"internalType":"uint64"},{"name":"errorCode","type":"uint32","indexed":false,"internalType":"uint32"}],"anonymous":false},{"type":"event","name":"FinalizedWithdrawal","inputs":[{"name":"user","type":"address","indexed":true,"internalType":"address"},{"name":"destination","type":"address","indexed":false,"internalType":"address"},{"name":"usd","type":"uint64","indexed":false,"internalType":"uint64"},{"name":"nonce","type":"uint64","indexed":false,"internalType":"uint64"},{"name":"message","type":"bytes32","indexed":false,"internalType":"bytes32"}],"anonymous":false},{"type":"event","name":"RequestedWithdrawal","inputs":[{"name":"user","type":"address","indexed":true,"internalType":"address"},{"name":"destination","type":"address","indexed":false,"internalType":"address"},{"name":"usd","type":"uint64","indexed":false,"internalType":"uint64"},{"name":"nonce","type":"uint64","indexed":false,"internalType":"uint64"},{"name":"message","type":"bytes32","indexed":false,"internalType":"bytes32"},{"name":"requestedTime","type":"uint64","indexed":false,"internalType":"uint64"}],"anonymous":false}],"bytecode":{"object":"0x60a060405234801561000f575f5ffd5b50604051610e5a380380610e5a833981810160405281019061003191906100c9565b8073ffffffffffffffffffffffffffffffffffffffff1660808173ffffffffffffffffffffffffffffffffffffffff1681525050506100f4565b5f5ffd5b5f73ffffffffffffffffffffffffffffffffffffffff82169050919050565b5f6100988261006f565b9050919050565b6100a88161008e565b81146100b2575f5ffd5b50565b5f815190506100c38161009f565b92915050565b5f602082840312156100de576100dd61006b565b5b5f6100eb848285016100b5565b91505092915050565b608051610d3b61011f5f395f8181609b0152818160bf015281816102eb015261043b0152610d3b5ff3fe608060405234801561000f575f5ffd5b506004361061003f575f3560e01c806311eac855146100435780634c54406c14610061578063b30b5bce1461007d575b5f5ffd5b61004b610099565b60405161005891906105ef565b60405180910390f35b61007b60048036038101906100769190610688565b6100bd565b005b61009760048036038101906100929190610727565b6102bd565b005b7f000000000000000000000000000000000000000000000000000000000000000081565b7f000000000000000000000000000000000000000000000000000000000000000073ffffffffffffffffffffffffffffffffffffffff1663a9059cbb83836040518363ffffffff1660e01b81526004016101189291906107ba565b6020604051808303815f875af1158015610134573d5f5f3e3d5ffd5b505050506040513d601f19601f820116820180604052508101906101589190610816565b610197576040517f08c379a000000000000000000000000000000000000000000000000000000000815260040161018e9061089b565b60405180910390fd5b5f5f5f81819054906101000a900467ffffffffffffffff166101b8906108e6565b91906101000a81548167ffffffffffffffff021916908367ffffffffffffffff160217905590505f8383836040516020016101f59392919061098e565b6040516020818303038152906040528051906020012090508373ffffffffffffffffffffffffffffffffffffffff167fcc10abf54af5c0718b10b0156dfe1e369ce3eee72423e9e86936a0082e9c5d1b858585854260405161025b9594939291906109f1565b60405180910390a28373ffffffffffffffffffffffffffffffffffffffff167fe5c7fe3a4ffca1590f26d74c8ba8b0db69557f7f4607a2a43f82e93041611978858585856040516102af9493929190610a42565b60405180910390a250505050565b5f5f90505b8282905081101561057057368383838181106102e1576102e0610a85565b5b905060c0020190507f000000000000000000000000000000000000000000000000000000000000000073ffffffffffffffffffffffffffffffffffffffff1663d505accf825f0160208101906103379190610ab2565b3084602001602081019061034b9190610add565b85604001602081019061035e9190610add565b8660600160400160208101906103749190610b3e565b876060015f01355f1b88606001602001355f1b6040518863ffffffff1660e01b81526004016103a99796959493929190610b78565b5f604051808303815f87803b1580156103c0575f5ffd5b505af19250505080156103d1575060015b610438577fa2dc875d1f90a167d873c30143e7631eb311ea851e74c8c4e9b92c80efeba489815f0160208101906104089190610ab2565b82602001602081019061041b9190610add565b5f60405161042b93929190610c2d565b60405180910390a1610562565b5f7f000000000000000000000000000000000000000000000000000000000000000073ffffffffffffffffffffffffffffffffffffffff166323b872dd835f0160208101906104879190610ab2565b3085602001602081019061049b9190610add565b6040518463ffffffff1660e01b81526004016104b993929190610c62565b6020604051808303815f875af11580156104d5573d5f5f3e3d5ffd5b505050506040513d601f19601f820116820180604052508101906104f99190610816565b905080610560577fa2dc875d1f90a167d873c30143e7631eb311ea851e74c8c4e9b92c80efeba489825f0160208101906105339190610ab2565b8360200160208101906105469190610add565b600160405161055793929190610cd0565b60405180910390a15b505b5080806001019150506102c2565b505050565b5f73ffffffffffffffffffffffffffffffffffffffff82169050919050565b5f819050919050565b5f6105b76105b26105ad84610575565b610594565b610575565b9050919050565b5f6105c88261059d565b9050919050565b5f6105d9826105be565b9050919050565b6105e9816105cf565b82525050565b5f6020820190506106025f8301846105e0565b92915050565b5f5ffd5b5f5ffd5b5f61061a82610575565b9050919050565b61062a81610610565b8114610634575f5ffd5b50565b5f8135905061064581610621565b92915050565b5f67ffffffffffffffff82169050919050565b6106678161064b565b8114610671575f5ffd5b50565b5f813590506106828161065e565b92915050565b5f5f6040838503121561069e5761069d610608565b5b5f6106ab85828601610637565b92505060206106bc85828601610674565b9150509250929050565b5f5ffd5b5f5ffd5b5f5ffd5b5f5f83601f8401126106e7576106e66106c6565b5b8235905067ffffffffffffffff811115610704576107036106ca565b5b6020830191508360c08202830111156107205761071f6106ce565b5b9250929050565b5f5f6020838503121561073d5761073c610608565b5b5f83013567ffffffffffffffff81111561075a5761075961060c565b5b610766858286016106d2565b92509250509250929050565b61077b81610610565b82525050565b5f819050919050565b5f6107a461079f61079a8461064b565b610594565b610781565b9050919050565b6107b48161078a565b82525050565b5f6040820190506107cd5f830185610772565b6107da60208301846107ab565b9392505050565b5f8115159050919050565b6107f5816107e1565b81146107ff575f5ffd5b50565b5f81519050610810816107ec565b92915050565b5f6020828403121561082b5761082a610608565b5b5f61083884828501610802565b91505092915050565b5f82825260208201905092915050565b7f7472616e73666572206661696c656400000000000000000000000000000000005f82015250565b5f610885600f83610841565b915061089082610851565b602082019050919050565b5f6020820190508181035f8301526108b281610879565b9050919050565b7f4e487b71000000000000000000000000000000000000000000000000000000005f52601160045260245ffd5b5f6108f08261064b565b915067ffffffffffffffff820361090a576109096108b9565b5b600182019050919050565b5f8160601b9050919050565b5f61092b82610915565b9050919050565b5f61093c82610921565b9050919050565b61095461094f82610610565b610932565b82525050565b5f8160c01b9050919050565b5f6109708261095a565b9050919050565b6109886109838261064b565b610966565b82525050565b5f6109998286610943565b6014820191506109a98285610977565b6008820191506109b98284610977565b600882019150819050949350505050565b6109d38161064b565b82525050565b5f819050919050565b6109eb816109d9565b82525050565b5f60a082019050610a045f830188610772565b610a1160208301876109ca565b610a1e60408301866109ca565b610a2b60608301856109e2565b610a3860808301846109ca565b9695505050505050565b5f608082019050610a555f830187610772565b610a6260208301866109ca565b610a6f60408301856109ca565b610a7c60608301846109e2565b95945050505050565b7f4e487b71000000000000000000000000000000000000000000000000000000005f52603260045260245ffd5b5f60208284031215610ac757610ac6610608565b5b5f610ad484828501610637565b91505092915050565b5f60208284031215610af257610af1610608565b5b5f610aff84828501610674565b91505092915050565b5f60ff82169050919050565b610b1d81610b08565b8114610b27575f5ffd5b50565b5f81359050610b3881610b14565b92915050565b5f60208284031215610b5357610b52610608565b5b5f610b6084828501610b2a565b91505092915050565b610b7281610b08565b82525050565b5f60e082019050610b8b5f83018a610772565b610b986020830189610772565b610ba560408301886107ab565b610bb260608301876107ab565b610bbf6080830186610b69565b610bcc60a08301856109e2565b610bd960c08301846109e2565b98975050505050505050565b5f819050919050565b5f63ffffffff82169050919050565b5f610c17610c12610c0d84610be5565b610594565b610bee565b9050919050565b610c2781610bfd565b82525050565b5f606082019050610c405f830186610772565b610c4d60208301856109ca565b610c5a6040830184610c1e565b949350505050565b5f606082019050610c755f830186610772565b610c826020830185610772565b610c8f60408301846107ab565b949350505050565b5f819050919050565b5f610cba610cb5610cb084610c97565b610594565b610bee565b9050919050565b610cca81610ca0565b82525050565b5f606082019050610ce35f830186610772565b610cf060208301856109ca565b610cfd6040830184610cc1565b94935050505056fea26469706673582212209c4006f975c69cafbf82209d7e7601dd22837cea462ed16f03c483c5d12dd34a64736f6c634300081c0033","linkReferences":{}},"methodIdentifiers":{"batchedDepositWithPermit((address,uint64,uint64,(uint256,uint256,uint8))[])":"b30b5bce","release(address,uint64)":"4c54406c","usdcToken()":"11eac855"},"id":0}