{"abi":[{"type":"constructor","inputs":[{"name":"usdcAddress","type":"address","internalType":"address"}],"stateMutability":"nonpayable"},{"type":"function","name":"batchedDepositWithPermit","inputs":[{"name":"deposits","type":"tuple[]","internalType":"struct DepositWithPermit[]","components":[{"name":"user","type":"address","internalType":"address"},{"name":"usd","type":"uint64","internalType":"uint64"},{"name":"deadline","type":"uint64","internalType":"uint64"},{"name":"signature","type":"tuple","internalType":"struct Signature","components":[{"name":"v","type":"uint8","internalType":"uint8"},{"name":"r","type":"uint256","internalType":"uint256"},{"name":"s","type":"uint256","internalType":"uint256"}]}]}],"outputs":[],"stateMutability":"nonpayable"},{"type":"function","name":"release","inputs":[{"name":"user","type":"address","internalType":"address"},{"name":"usd","type":"uint64","internalType":"uint64"}],"outputs":[],"stateMutability":"nonpayable"},{"type":"function","name":"usdcToken","inputs":[],"outputs":[{"name":"","type":"address","internalType":"contract IERC20PermitMinimal"}],"stateMutability":"view"},{"type":"event","name":"Deposit","inputs":[{"name":"user","type":"address","indexed":true,"internalType":"address"},{"name":"usd","type":"uint64","indexed":false,"internalType":"uint64"}],"anonymous":false},{"type":"event","name":"FailedPermitDeposit","inputs":[{"name":"user","type":"address","indexed":false,"internalType":"address"},{"name":"usd","type":"uint64","indexed":false,"internalType":"uint64"},{"name":"errorCode","type":"uint32","indexed":false,"internalType":"uint32"}],"anonymous":false},{"type":"event","name":"Withdrawal","inputs":[{"name":"user","type":"address","indexed":true,"internalType":"address"},{"name":"usd","type":"uint64","indexed":false,"internalType":"uint64"}],"anonymous":false}],"bytecode":{"object":"0x60a060405234801561000f575f5ffd5b50604051610d8e380380610d8e833981810160405281019061003191906100c9565b8073ffffffffffffffffffffffffffffffffffffffff1660808173ffffffffffffffffffffffffffffffffffffffff1681525050506100f4565b5f5ffd5b5f73ffffffffffffffffffffffffffffffffffffffff82169050919050565b5f6100988261006f565b9050919050565b6100a88161008e565b81146100b2575f5ffd5b50565b5f815190506100c38161009f565b92915050565b5f602082840312156100de576100dd61006b565b5b5f6100eb848285016100b5565b91505092915050565b608051610c6f61011f5f395f8181609b0152818160bf0152818161022f015261032d0152610c6f5ff3fe608060405234801561000f575f5ffd5b506004361061003f575f3560e01c806311eac855146100435780634c54406c14610061578063ea7fb0941461007d575b5f5ffd5b61004b610099565b6040516100589190610538565b60405180910390f35b61007b600480360381019061007691906105da565b6100bd565b005b610097600480360381019061009291906108ab565b6101e9565b005b7f000000000000000000000000000000000000000000000000000000000000000081565b7f000000000000000000000000000000000000000000000000000000000000000073ffffffffffffffffffffffffffffffffffffffff1663a9059cbb83836040518363ffffffff1660e01b8152600401610118929190610931565b6020604051808303815f875af1158015610134573d5f5f3e3d5ffd5b505050506040513d601f19601f82011682018060405250810190610158919061098d565b610197576040517f08c379a000000000000000000000000000000000000000000000000000000000815260040161018e90610a12565b60405180910390fd5b8173ffffffffffffffffffffffffffffffffffffffff167f3ead48c5e67cf96ec6d96125bc47926d138b9bd2e8bf6942a8dc8d4dd08d81ff826040516101dd9190610a3f565b60405180910390a25050565b5f815190505f5b818110156102285761021b83828151811061020e5761020d610a58565b5b602002602001015161022d565b80806001019150506101f0565b505050565b7f000000000000000000000000000000000000000000000000000000000000000073ffffffffffffffffffffffffffffffffffffffff1663d505accf825f0151308460200151856040015186606001515f01518760600151602001515f1b8860600151604001515f1b6040518863ffffffff1660e01b81526004016102b89796959493929190610aac565b5f604051808303815f87803b1580156102cf575f5ffd5b505af19250505080156102e0575060015b61032b577fa2dc875d1f90a167d873c30143e7631eb311ea851e74c8c4e9b92c80efeba489815f015182602001515f60405161031e93929190610b61565b60405180910390a16104bb565b7f000000000000000000000000000000000000000000000000000000000000000073ffffffffffffffffffffffffffffffffffffffff166323b872dd825f01513084602001516040518463ffffffff1660e01b815260040161038f93929190610b96565b6020604051808303815f875af19250505080156103ca57506040513d601f19601f820116820180604052508101906103c7919061098d565b60015b610416577fa2dc875d1f90a167d873c30143e7631eb311ea851e74c8c4e9b92c80efeba489815f01518260200151600160405161040993929190610c04565b60405180910390a16104bb565b80610464577fa2dc875d1f90a167d873c30143e7631eb311ea851e74c8c4e9b92c80efeba489825f01518360200151600160405161045693929190610c04565b60405180910390a1506104bb565b50805f015173ffffffffffffffffffffffffffffffffffffffff167f0ee94a97c7c69ce2eb8cfb09bacc78d63a73b5e0fbed0d13a079190ff876ae3a82602001516040516104b29190610a3f565b60405180910390a25b50565b5f73ffffffffffffffffffffffffffffffffffffffff82169050919050565b5f819050919050565b5f6105006104fb6104f6846104be565b6104dd565b6104be565b9050919050565b5f610511826104e6565b9050919050565b5f61052282610507565b9050919050565b61053281610518565b82525050565b5f60208201905061054b5f830184610529565b92915050565b5f604051905090565b5f5ffd5b5f5ffd5b5f61056c826104be565b9050919050565b61057c81610562565b8114610586575f5ffd5b50565b5f8135905061059781610573565b92915050565b5f67ffffffffffffffff82169050919050565b6105b98161059d565b81146105c3575f5ffd5b50565b5f813590506105d4816105b0565b92915050565b5f5f604083850312156105f0576105ef61055a565b5b5f6105fd85828601610589565b925050602061060e858286016105c6565b9150509250929050565b5f5ffd5b5f601f19601f8301169050919050565b7f4e487b71000000000000000000000000000000000000000000000000000000005f52604160045260245ffd5b6106628261061c565b810181811067ffffffffffffffff821117156106815761068061062c565b5b80604052505050565b5f610693610551565b905061069f8282610659565b919050565b5f67ffffffffffffffff8211156106be576106bd61062c565b5b602082029050602081019050919050565b5f5ffd5b5f5ffd5b5f60ff82169050919050565b6106ec816106d7565b81146106f6575f5ffd5b50565b5f81359050610707816106e3565b92915050565b5f819050919050565b61071f8161070d565b8114610729575f5ffd5b50565b5f8135905061073a81610716565b92915050565b5f60608284031215610755576107546106d3565b5b61075f606061068a565b90505f61076e848285016106f9565b5f8301525060206107818482850161072c565b60208301525060406107958482850161072c565b60408301525092915050565b5f60c082840312156107b6576107b56106d3565b5b6107c0608061068a565b90505f6107cf84828501610589565b5f8301525060206107e2848285016105c6565b60208301525060406107f6848285016105c6565b604083015250606061080a84828501610740565b60608301525092915050565b5f610828610823846106a4565b61068a565b90508083825260208201905060c0840283018581111561084b5761084a6106cf565b5b835b81811015610874578061086088826107a1565b84526020840193505060c08101905061084d565b5050509392505050565b5f82601f83011261089257610891610618565b5b81356108a2848260208601610816565b91505092915050565b5f602082840312156108c0576108bf61055a565b5b5f82013567ffffffffffffffff8111156108dd576108dc61055e565b5b6108e98482850161087e565b91505092915050565b6108fb81610562565b82525050565b5f61091b6109166109118461059d565b6104dd565b61070d565b9050919050565b61092b81610901565b82525050565b5f6040820190506109445f8301856108f2565b6109516020830184610922565b9392505050565b5f8115159050919050565b61096c81610958565b8114610976575f5ffd5b50565b5f8151905061098781610963565b92915050565b5f602082840312156109a2576109a161055a565b5b5f6109af84828501610979565b91505092915050565b5f82825260208201905092915050565b7f7472616e73666572206661696c656400000000000000000000000000000000005f82015250565b5f6109fc600f836109b8565b9150610a07826109c8565b602082019050919050565b5f6020820190508181035f830152610a29816109f0565b9050919050565b610a398161059d565b82525050565b5f602082019050610a525f830184610a30565b92915050565b7f4e487b71000000000000000000000000000000000000000000000000000000005f52603260045260245ffd5b610a8e816106d7565b82525050565b5f819050919050565b610aa681610a94565b82525050565b5f60e082019050610abf5f83018a6108f2565b610acc60208301896108f2565b610ad96040830188610922565b610ae66060830187610922565b610af36080830186610a85565b610b0060a0830185610a9d565b610b0d60c0830184610a9d565b98975050505050505050565b5f819050919050565b5f63ffffffff82169050919050565b5f610b4b610b46610b4184610b19565b6104dd565b610b22565b9050919050565b610b5b81610b31565b82525050565b5f606082019050610b745f8301866108f2565b610b816020830185610a30565b610b8e6040830184610b52565b949350505050565b5f606082019050610ba95f8301866108f2565b610bb660208301856108f2565b610bc36040830184610922565b949350505050565b5f819050919050565b5f610bee610be9610be484610bcb565b6104dd565b610b22565b9050919050565b610bfe81610bd4565b82525050565b5f606082019050610c175f8301866108f2565b610c246020830185610a30565b610c316040830184610bf5565b94935050505056fea264697066735822122039da53684c49ac31ff4248ca709a90d2ea4c57d745ae8f563fd53ad4f4d9236564736f6c634300081c0033","linkReferences":{}},"methodIdentifiers":{"batchedDepositWithPermit((address,uint64,uint64,(uint8,uint256,uint256))[])":"ea7fb094","release(address,uint64)":"4c54406c","usdcToken()":"11eac855"},"id":0}