{"abi":[{"type":"receive","stateMutability":"payable"},{"type":"function","name":"swapExactAmountIn","inputs":[{"name":"","type":"address","internalType":"address"},{"name":"swapData","type":"tuple","internalType":"struct MockVeloraSwap.SwapData","components":[{"name":"srcToken","type":"address","internalType":"address"},{"name":"destToken","type":"address","internalType":"address"},{"name":"fromAmount","type":"uint256","internalType":"uint256"},{"name":"toAmount","type":"uint256","internalType":"uint256"},{"name":"quotedAmount","type":"uint256","internalType":"uint256"},{"name":"metadata","type":"bytes32","internalType":"bytes32"},{"name":"beneficiary","type":"address","internalType":"address payable"}]},{"name":"","type":"uint256","internalType":"uint256"},{"name":"","type":"bytes","internalType":"bytes"},{"name":"","type":"bytes","internalType":"bytes"}],"outputs":[{"name":"receivedAmount","type":"uint256","internalType":"uint256"},{"name":"paraswapShare","type":"uint256","internalType":"uint256"},{"name":"partnerShare","type":"uint256","internalType":"uint256"}],"stateMutability":"payable"}],"bytecode":{"object":"0x60808060405234601557610470908161001b8239f35b600080fdfe608080604052600436101561001d575b50361561001b57600080fd5b005b600090813560e01c63e3ead59e14610035575061000f565b610160366003190112610330576004356001600160a01b038116036103305760e0366023190112610330576101243567ffffffffffffffff81116103895761008190369060040161038d565b50506101443567ffffffffffffffff8111610389576100a490369060040161038d565b506001600160a01b0390506100b76103c0565b1661026d57506064353403610230575b6001600160a01b036100d76103d6565b166101a357808080806001600160a01b036100f0610424565b16608435905af13d1561019e573d67ffffffffffffffff811161018a5760405190610125601f8201601f1916602001836103ec565b81528260203d92013e5b1561014e576060905b6040519060843582528060208301526040820152f35b60405162461bcd60e51b81526020600482015260146024820152731b985d1a5d99481bdd5d1c1d5d0819985a5b195960621b6044820152606490fd5b634e487b7160e01b83526041600452602483fd5b61012f565b806001600160a01b036101b46103d6565b166101bd610424565b90803b1561022c576040516340c10f1960e01b81526001600160a01b03909216600483015260843560248301529092829184916044918391905af191821561021f578160609361020f575b5050610138565b610218916103ec565b3881610208565b50604051903d90823e3d90fd5b5050fd5b60405162461bcd60e51b81526020600482015260156024820152740dcc2e8d2ecca40d2dce0eae840dad2e6dac2e8c6d605b1b6044820152606490fd5b3461034757508060206001600160a01b036102866103c0565b166064604051809481936323b872dd60e01b8352336004840152306024840152833560448401525af190811561033c5782916102fd575b506100c75760405162461bcd60e51b81526020600482015260136024820152721d1c985b9cd9995c919c9bdb4819985a5b1959606a1b6044820152606490fd5b90506020813d602011610334575b81610318602093836103ec565b810103126103305751801515810361033057386102bd565b5080fd5b3d915061030b565b6040513d84823e3d90fd5b62461bcd60e51b815260206004820152601760248201527f756e6578706563746564206e61746976652076616c75650000000000000000006044820152606490fd5b8280fd5b9181601f840112156103bb5782359167ffffffffffffffff83116103bb57602083818601950101116103bb57565b600080fd5b6024356001600160a01b03811681036103bb5790565b6044356001600160a01b03811681036103bb5790565b90601f8019910116810190811067ffffffffffffffff82111761040e57604052565b634e487b7160e01b600052604160045260246000fd5b60e4356001600160a01b03811681036103bb579056fea2646970667358221220bc3d77df2c5b4f029965633d0e229111a89ff2eff2a8c97a3904967b089f1f3764736f6c634300081c0033","linkReferences":{}},"methodIdentifiers":{"swapExactAmountIn(address,(address,address,uint256,uint256,uint256,bytes32,address),uint256,bytes,bytes)":"e3ead59e"},"id":0}