{"abi":[{"type":"function","name":"depositForBurn","inputs":[{"name":"amount","type":"uint256","internalType":"uint256"},{"name":"destinationDomain","type":"uint32","internalType":"uint32"},{"name":"mintRecipient","type":"bytes32","internalType":"bytes32"},{"name":"burnToken","type":"address","internalType":"address"},{"name":"destinationCaller","type":"bytes32","internalType":"bytes32"},{"name":"maxFee","type":"uint256","internalType":"uint256"},{"name":"minFinalityThreshold","type":"uint32","internalType":"uint32"}],"outputs":[],"stateMutability":"nonpayable"},{"type":"function","name":"handleReceiveFinalizedMessage","inputs":[{"name":"mintToken","type":"address","internalType":"address"},{"name":"mintRecipient","type":"address","internalType":"address"},{"name":"amount","type":"uint256","internalType":"uint256"}],"outputs":[],"stateMutability":"nonpayable"},{"type":"event","name":"DepositForBurn","inputs":[{"name":"burnToken","type":"address","indexed":true,"internalType":"address"},{"name":"amount","type":"uint256","indexed":false,"internalType":"uint256"},{"name":"depositor","type":"address","indexed":true,"internalType":"address"},{"name":"mintRecipient","type":"bytes32","indexed":false,"internalType":"bytes32"},{"name":"destinationDomain","type":"uint32","indexed":false,"internalType":"uint32"},{"name":"destinationTokenMessenger","type":"bytes32","indexed":false,"internalType":"bytes32"},{"name":"destinationCaller","type":"bytes32","indexed":false,"internalType":"bytes32"},{"name":"maxFee","type":"uint256","indexed":false,"internalType":"uint256"},{"name":"minFinalityThreshold","type":"uint32","indexed":true,"internalType":"uint32"},{"name":"hookData","type":"bytes","indexed":false,"internalType":"bytes"}],"anonymous":false},{"type":"event","name":"MintAndWithdraw","inputs":[{"name":"mintRecipient","type":"address","indexed":true,"internalType":"address"},{"name":"amount","type":"uint256","indexed":false,"internalType":"uint256"},{"name":"mintToken","type":"address","indexed":true,"internalType":"address"},{"name":"feeCollected","type":"uint256","indexed":false,"internalType":"uint256"}],"anonymous":false}],"bytecode":{"object":"0x60808060405234610016576103a8908161001c8239f35b600080fdfe6080604081815260048036101561001557600080fd5b600092833560e01c9081631b6682831461023d5750638e0250ee1461003957600080fd5b346102395760e03660031901126102395780356024359063ffffffff93848316809303610234576064356001600160a01b03811693908490036102345760c4359586168096036102345781516323b872dd60e01b81523386820152306024820152604481018490526020929083816064818c8a5af190811561022a5789916101c4575b501561018c578051958387019087821067ffffffffffffffff83111761017757508152878652805193845260443583850152830152856060830152608435608083015260a43560a083015260e060c08301528351938460e0840152865b858110610162575050507f0c8c1cbdc5190613ebd485511d4e2812cfa45eecb79d845893331fedad5130a59061010086818684010152813395601f80199101168101030190a480f35b81810183015184820161010001528201610119565b604190634e487b7160e01b6000525260246000fd5b5162461bcd60e51b815280860183905260136024820152721d1c985b9cd9995c919c9bdb4819985a5b1959606a1b6044820152606490fd5b9050833d8511610223575b601f8101601f1916820167ffffffffffffffff81118382101761020e578591839185528101031261020a5751801515810361020a57386100bc565b8880fd5b604189634e487b7160e01b6000525260246000fd5b503d6101cf565b82513d8b823e3d90fd5b600080fd5b8280fd5b8484849234610239576060366003190112610239576001600160a01b0384358181169391929084900361033757602435928316809303610337576044359073cccccccccccccccccccccccccccccccccccc0002330361033b5750833b156103375781516340c10f1960e01b81528387820152816024820152858160448183895af1801561032d576102fc575b50907f50c55e915134d457debfa58eb6f4342956f8b0616d51a89a3659360178e1ab63918151908152856020820152a380f35b67ffffffffffffffff819692961161031a57825293945084866102c9565b634e487b7160e01b825260418752602482fd5b83513d88823e3d90fd5b8480fd5b62461bcd60e51b815260208782015260136024820152723ab730baba3437b934bd32b21031b0b63632b960691b6044820152606490fdfea2646970667358221220c5df6e88b02434ca13249195d92e52845cffe3899c6312d03204c0647ab80a9a64736f6c63430008170033","linkReferences":{}},"methodIdentifiers":{"depositForBurn(uint256,uint32,bytes32,address,bytes32,uint256,uint32)":"8e0250ee","handleReceiveFinalizedMessage(address,address,uint256)":"1b668283"},"id":1}