{"abi":[{"type":"receive","stateMutability":"payable"},{"type":"function","name":"swap","inputs":[{"name":"srcToken","type":"address","internalType":"address"},{"name":"destToken","type":"address","internalType":"address"},{"name":"recipient","type":"address","internalType":"address"},{"name":"srcAmount","type":"uint256","internalType":"uint256"},{"name":"destAmount","type":"uint256","internalType":"uint256"}],"outputs":[],"stateMutability":"payable"},{"type":"event","name":"Swap","inputs":[{"name":"sender","type":"address","indexed":true,"internalType":"address"},{"name":"recipient","type":"address","indexed":true,"internalType":"address"},{"name":"srcToken","type":"address","indexed":false,"internalType":"address"},{"name":"destToken","type":"address","indexed":false,"internalType":"address"},{"name":"srcAmount","type":"uint256","indexed":false,"internalType":"uint256"},{"name":"destAmount","type":"uint256","indexed":false,"internalType":"uint256"}],"anonymous":false}],"bytecode":{"object":"0x608080604052346015576103a5908161001b8239f35b600080fdfe608080604052600436101561001d575b50361561001b57600080fd5b005b600090813560e01c63e343fe1214610035575061000f565b60a0366003190112610333576004356001600160a01b0381169081900361032f576024356001600160a01b038116929083900361032b576044356001600160a01b038116938482036101d8576064359160843593851560001461021957508234036101dc5786905b848361017c578280929181925af13d15610177573d67ffffffffffffffff811161016357604051906100d9601f8201601f191660200183610337565b81528760203d92013e5b15610127575b6040519384526020840152604083015260608201527f20efd6d5195b7b50273f01cd79a27989255356f9f13293edc53ee142accfdb7560803392a380f35b60405162461bcd60e51b81526020600482015260146024820152731b985d1a5d99481bdd5d1c1d5d0819985a5b195960621b6044820152606490fd5b634e487b7160e01b88526041600452602488fd5b6100e3565b505050803b156101d8576040516340c10f1960e01b8152856004820152836024820152868160448183865af180156101cd576101b9575b506100e9565b866101c691979297610337565b94386101b3565b6040513d89823e3d90fd5b8580fd5b60405162461bcd60e51b81526020600482015260156024820152740dcc2e8d2ecca40d2dce0eae840dad2e6dac2e8c6d605b1b6044820152606490fd5b346102e957506040516323b872dd60e01b8152336004820152306024820152604481018490526020816064818b8a5af19081156102de57889161029f575b501561026457869061009d565b60405162461bcd60e51b81526020600482015260136024820152721d1c985b9cd9995c919c9bdb4819985a5b1959606a1b6044820152606490fd5b90506020813d6020116102d6575b816102ba60209383610337565b810103126102d2575180151581036102d25738610257565b8780fd5b3d91506102ad565b6040513d8a823e3d90fd5b62461bcd60e51b815260206004820152601760248201527f756e6578706563746564206e61746976652076616c75650000000000000000006044820152606490fd5b8380fd5b8280fd5b5080fd5b90601f8019910116810190811067ffffffffffffffff82111761035957604052565b634e487b7160e01b600052604160045260246000fdfea2646970667358221220593637bf482c2078ec90da40444bfc3339af6d016587ac28c6606d8c6a71b92864736f6c634300081c0033","linkReferences":{}},"methodIdentifiers":{"swap(address,address,address,uint256,uint256)":"e343fe12"},"id":0}