{"abi":[{"type":"receive","stateMutability":"payable"},{"type":"function","name":"swap","inputs":[{"name":"srcToken","type":"address","internalType":"address"},{"name":"destToken","type":"address","internalType":"address"},{"name":"recipient","type":"address","internalType":"address"},{"name":"srcAmount","type":"uint256","internalType":"uint256"},{"name":"destAmount","type":"uint256","internalType":"uint256"}],"outputs":[],"stateMutability":"payable"},{"type":"event","name":"SwappedV3","inputs":[{"name":"uuid","type":"bytes16","indexed":false,"internalType":"bytes16"},{"name":"partner","type":"address","indexed":false,"internalType":"address"},{"name":"feePercent","type":"uint256","indexed":false,"internalType":"uint256"},{"name":"initiator","type":"address","indexed":false,"internalType":"address"},{"name":"beneficiary","type":"address","indexed":true,"internalType":"address"},{"name":"srcToken","type":"address","indexed":true,"internalType":"address"},{"name":"destToken","type":"address","indexed":true,"internalType":"address"},{"name":"srcAmount","type":"uint256","indexed":false,"internalType":"uint256"},{"name":"receivedAmount","type":"uint256","indexed":false,"internalType":"uint256"},{"name":"expectedAmount","type":"uint256","indexed":false,"internalType":"uint256"}],"anonymous":false}],"bytecode":{"object":"0x608080604052346015576103ff908161001b8239f35b600080fdfe608080604052600436101561001d575b50361561001b57600080fd5b005b600090813560e01c63e343fe1214610035575061000f565b60a036600319011261038d576004356001600160a01b03811690819003610389576024356001600160a01b0381169290839003610385576044356001600160a01b038116918282036102325760643591608435918561027357508234036102365786905b828761018c578280929181925af13d15610187573d67ffffffffffffffff811161017357604051906100d5601f8201601f191660200183610391565b81528760203d92013e5b15610137577fe00361d207b252a464323eb23d45d42583e391f2031acdd2e9fa36efddd43cb09160e0915b6040519188835288602084015288604084015233606084015260808301528060a083015260c0820152a480f35b60405162461bcd60e51b81526020600482015260146024820152731b985d1a5d99481bdd5d1c1d5d0819985a5b195960621b6044820152606490fd5b634e487b7160e01b88526041600452602488fd5b6100df565b505050843b15610232576040516340c10f1960e01b81528360048201528160248201528681604481838a5af18015610227576101ee575b507fe00361d207b252a464323eb23d45d42583e391f2031acdd2e9fa36efddd43cb09160e09161010a565b918661021e60e093987fe00361d207b252a464323eb23d45d42583e391f2031acdd2e9fa36efddd43cb095610391565b969150916101c3565b6040513d89823e3d90fd5b8580fd5b60405162461bcd60e51b81526020600482015260156024820152740dcc2e8d2ecca40d2dce0eae840dad2e6dac2e8c6d605b1b6044820152606490fd5b3461034357506040516323b872dd60e01b8152336004820152306024820152604481018490526020816064818b8a5af19081156103385788916102f9575b50156102be578690610099565b60405162461bcd60e51b81526020600482015260136024820152721d1c985b9cd9995c919c9bdb4819985a5b1959606a1b6044820152606490fd5b90506020813d602011610330575b8161031460209383610391565b8101031261032c5751801515810361032c57386102b1565b8780fd5b3d9150610307565b6040513d8a823e3d90fd5b62461bcd60e51b815260206004820152601760248201527f756e6578706563746564206e61746976652076616c75650000000000000000006044820152606490fd5b8380fd5b8280fd5b5080fd5b90601f8019910116810190811067ffffffffffffffff8211176103b357604052565b634e487b7160e01b600052604160045260246000fdfea26469706673582212200a14e86d182600f8f34fc4f5c1d5ccf4b211118f1d96d6777eb2814952a942d764736f6c634300081c0033","linkReferences":{}},"methodIdentifiers":{"swap(address,address,address,uint256,uint256)":"e343fe12"},"id":0}