{"abi":[{"type":"function","name":"deposit","inputs":[{"name":"depositor","type":"bytes32","internalType":"bytes32"},{"name":"recipient","type":"bytes32","internalType":"bytes32"},{"name":"inputToken","type":"bytes32","internalType":"bytes32"},{"name":"outputToken","type":"bytes32","internalType":"bytes32"},{"name":"inputAmount","type":"uint256","internalType":"uint256"},{"name":"outputAmount","type":"uint256","internalType":"uint256"},{"name":"destinationChainId","type":"uint256","internalType":"uint256"},{"name":"exclusiveRelayer","type":"bytes32","internalType":"bytes32"},{"name":"quoteTimestamp","type":"uint32","internalType":"uint32"},{"name":"fillDeadline","type":"uint32","internalType":"uint32"},{"name":"exclusivityDeadline","type":"uint32","internalType":"uint32"},{"name":"message","type":"bytes","internalType":"bytes"}],"outputs":[],"stateMutability":"payable"},{"type":"function","name":"nextDepositId","inputs":[],"outputs":[{"name":"","type":"uint256","internalType":"uint256"}],"stateMutability":"view"},{"type":"event","name":"FundsDeposited","inputs":[{"name":"inputToken","type":"bytes32","indexed":false,"internalType":"bytes32"},{"name":"outputToken","type":"bytes32","indexed":false,"internalType":"bytes32"},{"name":"inputAmount","type":"uint256","indexed":false,"internalType":"uint256"},{"name":"outputAmount","type":"uint256","indexed":false,"internalType":"uint256"},{"name":"destinationChainId","type":"uint256","indexed":true,"internalType":"uint256"},{"name":"depositId","type":"uint256","indexed":true,"internalType":"uint256"},{"name":"quoteTimestamp","type":"uint32","indexed":false,"internalType":"uint32"},{"name":"fillDeadline","type":"uint32","indexed":false,"internalType":"uint32"},{"name":"exclusivityDeadline","type":"uint32","indexed":false,"internalType":"uint32"},{"name":"depositor","type":"bytes32","indexed":true,"internalType":"bytes32"},{"name":"recipient","type":"bytes32","indexed":false,"internalType":"bytes32"},{"name":"exclusiveRelayer","type":"bytes32","indexed":false,"internalType":"bytes32"},{"name":"message","type":"bytes","indexed":false,"internalType":"bytes"}],"anonymous":false}],"bytecode":{"object":"0x6080806040523461001657610353908161001c8239f35b600080fdfe6080604081815260048036101561001557600080fd5b600092833560e01c9081638070a4bd146102ff575063ad5425c61461003957600080fd5b6101803660031901126102fb5760246044359260843592610104359263ffffffff958685168095036102f75761012435968088168098036102f357610144359081168091036102f357610164359767ffffffffffffffff96878a116102ef573660238b0112156102ef5789860135978089116102855736868a8d01011161028557846101bf5750883403610185575b8a54986000198a1461017357928894919285937f32ed1a409ef04c7b0227189c3a103dc5ac10e775a15b785dcc510201f7c25ad3999897958e60018e019055895199610140958b5260643560208c01528a015260a43560608a0152608089015260a088015260c0870152823560e087015260e435610100870152806101208701528501526101609701878401378686858401015235948160c43594601f80199101168101030190a480f35b634e487b7160e01b8c5260118752858cfd5b865162461bcd60e51b8152602081880152601581870152740dcc2e8d2ecca40d2dce0eae840dad2e6dac2e8c6d605b1b6044820152606490fd5b346102ad578b60208b60648b51809481936323b872dd60e01b83528d3390840152308d840152604483015260018060a01b038b165af19182156102a3578d92610241575b50506100c857865162461bcd60e51b8152602081880152601381870152721d1c985b9cd9995c919c9bdb4819985a5b1959606a1b6044820152606490fd5b9091506020903d60201161029b575b601f8201601f19168301908111838210176102895760209183918b528101031261028557518015158103610285573880610203565b8b80fd5b634e487b7160e01b8e5260418952878efd5b3d9150610250565b89513d8f823e3d90fd5b875162461bcd60e51b81526020818901526017818801527f756e6578706563746564206e61746976652076616c75650000000000000000006044820152606490fd5b8a80fd5b8880fd5b8780fd5b8280fd5b849034610319578160031936011261031957602091548152f35b5080fdfea26469706673582212203d13732826dddbe83aad9c6732d060419f590c74f2fdbad01bbe5b04af44ebe064736f6c63430008170033","linkReferences":{}},"methodIdentifiers":{"deposit(bytes32,bytes32,bytes32,bytes32,uint256,uint256,uint256,bytes32,uint32,uint32,uint32,bytes)":"ad5425c6","nextDepositId()":"8070a4bd"},"id":0}