{"abi":[{"type":"function","name":"deposit","inputs":[{"name":"depositor","type":"bytes32","internalType":"bytes32"},{"name":"recipient","type":"bytes32","internalType":"bytes32"},{"name":"inputToken","type":"bytes32","internalType":"bytes32"},{"name":"outputToken","type":"bytes32","internalType":"bytes32"},{"name":"inputAmount","type":"uint256","internalType":"uint256"},{"name":"outputAmount","type":"uint256","internalType":"uint256"},{"name":"destinationChainId","type":"uint256","internalType":"uint256"},{"name":"exclusiveRelayer","type":"bytes32","internalType":"bytes32"},{"name":"quoteTimestamp","type":"uint32","internalType":"uint32"},{"name":"fillDeadline","type":"uint32","internalType":"uint32"},{"name":"exclusivityDeadline","type":"uint32","internalType":"uint32"},{"name":"message","type":"bytes","internalType":"bytes"}],"outputs":[],"stateMutability":"payable"},{"type":"function","name":"nextDepositId","inputs":[],"outputs":[{"name":"","type":"uint256","internalType":"uint256"}],"stateMutability":"view"},{"type":"event","name":"FundsDeposited","inputs":[{"name":"inputToken","type":"bytes32","indexed":false,"internalType":"bytes32"},{"name":"outputToken","type":"bytes32","indexed":false,"internalType":"bytes32"},{"name":"inputAmount","type":"uint256","indexed":false,"internalType":"uint256"},{"name":"outputAmount","type":"uint256","indexed":false,"internalType":"uint256"},{"name":"destinationChainId","type":"uint256","indexed":true,"internalType":"uint256"},{"name":"depositId","type":"uint256","indexed":true,"internalType":"uint256"},{"name":"quoteTimestamp","type":"uint32","indexed":false,"internalType":"uint32"},{"name":"fillDeadline","type":"uint32","indexed":false,"internalType":"uint32"},{"name":"exclusivityDeadline","type":"uint32","indexed":false,"internalType":"uint32"},{"name":"depositor","type":"bytes32","indexed":true,"internalType":"bytes32"},{"name":"recipient","type":"bytes32","indexed":false,"internalType":"bytes32"},{"name":"exclusiveRelayer","type":"bytes32","indexed":false,"internalType":"bytes32"},{"name":"message","type":"bytes","indexed":false,"internalType":"bytes"}],"anonymous":false}],"bytecode":{"object":"0x60808060405234610016576103fa908161001c8239f35b600080fdfe608060409080825260048036101561001657600080fd5b600091823560e01c9081638070a4bd146103aa575063ad5425c61461003a57600080fd5b6101803660031901126103a6576024926044803592606490608435946101043563ffffffff908181168091036103a257610124359082821680920361039e576101443592831680930361039e57610164359867ffffffffffffffff97888b1161039a573660238c01121561039a578a87013598808a116102c857368a8d018f01116102c857866101dd575081340361018a57505b8a549860018a01808b1161017857928c9d95928a9b9c9d928b98957f32ed1a409ef04c7b0227189c3a103dc5ac10e775a15b785dcc510201f7c25ad39c97945580519a610140968c523560208c01528a015260a43560608a0152608089015260a088015260c0870152823560e087015260e435610100870152806101208701528501526101609701878401378686858401015235948160c43594601f80199101168101030190a480f35b634e487b7160e01b8d52601188528d8dfd5b895162461bcd60e51b81526020818901526027818f01527f4d6f636b53706f6b65506f6f6c3a206d73672e76616c756520213d20696e707591810191909152661d105b5bdd5b9d60ca1b81890152608490fd5b34610345578660a01c6102f2578c60208f8b8b8f5194859384926323b872dd60e01b845233908401523090830152888883015260018060a01b038d165af19182156102e6578e92610284575b50501561023657506100ce565b895162461bcd60e51b81526020818901526022818f01527f4d6f636b53706f6b65506f6f6c3a207472616e7366657246726f6d206661696c9181019190915261195960f21b81890152608490fd5b9091506020903d6020116102de575b601f8201601f19168301908111838210176102cc5760209183918e52810103126102c8575180151581036102c8573880610229565b8c80fd5b634e487b7160e01b8f5260418a528f8ffd5b3d9150610293565b8e8d51903d90823e3d90fd5b6084888f8b7f4d6f636b53706f6b65506f6f6c3a2062797465733332206973206e6f7420616e8f602867206164647265737360c01b9460208a93519762461bcd60e51b8952880152860152840152820152fd5b6084888f8b7f4d6f636b53706f6b65506f6f6c3a206d73672e76616c756520666f72206572638f602a690c8c0819195c1bdcda5d60b21b9460208a93519762461bcd60e51b8952880152860152840152820152fd5b8b80fd5b8980fd5b8880fd5b5080fd5b8390346103a657816003193601126103a657602091548152f3fea2646970667358221220ccfd92093dc9f4d07f2ee1406eef6126ee39258855f5132355ebe2dc2e47b30d64736f6c63430008170033","linkReferences":{}},"methodIdentifiers":{"deposit(bytes32,bytes32,bytes32,bytes32,uint256,uint256,uint256,bytes32,uint32,uint32,uint32,bytes)":"ad5425c6","nextDepositId()":"8070a4bd"},"id":0}