{"abi":[{"type":"function","name":"depositForBurn","inputs":[{"name":"amount","type":"uint256","internalType":"uint256"},{"name":"destinationDomain","type":"uint32","internalType":"uint32"},{"name":"mintRecipient","type":"bytes32","internalType":"bytes32"},{"name":"burnToken","type":"address","internalType":"address"},{"name":"destinationCaller","type":"bytes32","internalType":"bytes32"},{"name":"maxFee","type":"uint256","internalType":"uint256"},{"name":"minFinalityThreshold","type":"uint32","internalType":"uint32"}],"outputs":[{"name":"nonce","type":"uint64","internalType":"uint64"}],"stateMutability":"nonpayable"},{"type":"function","name":"nextNonce","inputs":[],"outputs":[{"name":"","type":"uint64","internalType":"uint64"}],"stateMutability":"view"},{"type":"event","name":"DepositForBurn","inputs":[{"name":"nonce","type":"uint64","indexed":true,"internalType":"uint64"},{"name":"burnToken","type":"address","indexed":true,"internalType":"address"},{"name":"depositor","type":"address","indexed":true,"internalType":"address"},{"name":"amount","type":"uint256","indexed":false,"internalType":"uint256"},{"name":"destinationDomain","type":"uint32","indexed":false,"internalType":"uint32"},{"name":"mintRecipient","type":"bytes32","indexed":false,"internalType":"bytes32"},{"name":"destinationCaller","type":"bytes32","indexed":false,"internalType":"bytes32"},{"name":"maxFee","type":"uint256","indexed":false,"internalType":"uint256"},{"name":"minFinalityThreshold","type":"uint32","indexed":false,"internalType":"uint32"}],"anonymous":false}],"bytecode":{"object":"0x608080604052346100165761025b908161001c8239f35b600080fdfe6080604081815260048036101561001557600080fd5b600092833560e01c9182638e0250ee1461006357505063d69c3d301461003a57600080fd5b3461005f578160031936011261005f5767ffffffffffffffff60209254169051908152f35b5080fd5b83853461021e5760e036600319011261021e5782359060243563ffffffff90818116809103610221576064356001600160a01b038116939084900361021e5760c43592831680930361021e576323b872dd60e01b8852338789015230602489015260448801859052602097888160648185895af19081156102145782916101b4575b501561017b57805467ffffffffffffffff80821698818a14610168575060018901169067ffffffffffffffff191617905584519384528684015260443584840152608435606084015260a435608084015260a0830152837f75fab8cc3f6726c52732fcbecc9da69d8adbe82c8318a1b0901418bf69f38fd760c03394a451908152f35b634e487b7160e01b845260119052602483fd5b855162461bcd60e51b815280880189905260136024820152721d1c985b9cd9995c919c9bdb4819985a5b1959606a1b6044820152606490fd5b9050883d8a1161020d575b601f8101601f1916820167ffffffffffffffff8111838210176101fa578a9183918a528101031261005f5751801515810361005f57896100e5565b634e487b7160e01b845260418a52602484fd5b503d6101bf565b87513d84823e3d90fd5b80fd5b8280fdfea2646970667358221220e2841a8ece3484cdbafb06b3c05cf84c90329ba7f73e29161c759e76f5d2b6ab64736f6c63430008170033","linkReferences":{}},"methodIdentifiers":{"depositForBurn(uint256,uint32,bytes32,address,bytes32,uint256,uint32)":"8e0250ee","nextNonce()":"d69c3d30"},"id":1}