{"abi":[{"type":"function","name":"allowance","inputs":[{"name":"owner","type":"address","internalType":"address"},{"name":"spender","type":"address","internalType":"address"}],"outputs":[{"name":"","type":"uint256","internalType":"uint256"}],"stateMutability":"view"},{"type":"function","name":"approve","inputs":[{"name":"spender","type":"address","internalType":"address"},{"name":"value","type":"uint256","internalType":"uint256"}],"outputs":[{"name":"","type":"bool","internalType":"bool"}],"stateMutability":"nonpayable"},{"type":"function","name":"balanceOf","inputs":[{"name":"account","type":"address","internalType":"address"}],"outputs":[{"name":"","type":"uint256","internalType":"uint256"}],"stateMutability":"view"},{"type":"function","name":"blacklist","inputs":[{"name":"_account","type":"address","internalType":"address"}],"outputs":[],"stateMutability":"nonpayable"},{"type":"function","name":"blacklister","inputs":[],"outputs":[{"name":"","type":"address","internalType":"address"}],"stateMutability":"view"},{"type":"function","name":"burn","inputs":[{"name":"_amount","type":"uint256","internalType":"uint256"}],"outputs":[],"stateMutability":"nonpayable"},{"type":"function","name":"configureMinter","inputs":[{"name":"minter","type":"address","internalType":"address"},{"name":"minterAllowedAmount","type":"uint256","internalType":"uint256"}],"outputs":[{"name":"","type":"bool","internalType":"bool"}],"stateMutability":"nonpayable"},{"type":"function","name":"currency","inputs":[],"outputs":[{"name":"","type":"string","internalType":"string"}],"stateMutability":"view"},{"type":"function","name":"decimals","inputs":[],"outputs":[{"name":"","type":"uint8","internalType":"uint8"}],"stateMutability":"view"},{"type":"function","name":"initialize","inputs":[{"name":"tokenName","type":"string","internalType":"string"},{"name":"tokenSymbol","type":"string","internalType":"string"},{"name":"tokenCurrency","type":"string","internalType":"string"},{"name":"tokenDecimals","type":"uint8","internalType":"uint8"},{"name":"newMasterMinter","type":"address","internalType":"address"},{"name":"newPauser","type":"address","internalType":"address"},{"name":"newBlacklister","type":"address","internalType":"address"},{"name":"newOwner","type":"address","internalType":"address"}],"outputs":[],"stateMutability":"nonpayable"},{"type":"function","name":"isBlacklisted","inputs":[{"name":"_account","type":"address","internalType":"address"}],"outputs":[{"name":"","type":"bool","internalType":"bool"}],"stateMutability":"view"},{"type":"function","name":"isMinter","inputs":[{"name":"account","type":"address","internalType":"address"}],"outputs":[{"name":"","type":"bool","internalType":"bool"}],"stateMutability":"view"},{"type":"function","name":"masterMinter","inputs":[],"outputs":[{"name":"","type":"address","internalType":"address"}],"stateMutability":"view"},{"type":"function","name":"mint","inputs":[{"name":"_to","type":"address","internalType":"address"},{"name":"_amount","type":"uint256","internalType":"uint256"}],"outputs":[{"name":"","type":"bool","internalType":"bool"}],"stateMutability":"nonpayable"},{"type":"function","name":"minterAllowance","inputs":[{"name":"minter","type":"address","internalType":"address"}],"outputs":[{"name":"","type":"uint256","internalType":"uint256"}],"stateMutability":"view"},{"type":"function","name":"name","inputs":[],"outputs":[{"name":"","type":"string","internalType":"string"}],"stateMutability":"view"},{"type":"function","name":"owner","inputs":[],"outputs":[{"name":"","type":"address","internalType":"address"}],"stateMutability":"view"},{"type":"function","name":"pause","inputs":[],"outputs":[],"stateMutability":"nonpayable"},{"type":"function","name":"paused","inputs":[],"outputs":[{"name":"","type":"bool","internalType":"bool"}],"stateMutability":"view"},{"type":"function","name":"pauser","inputs":[],"outputs":[{"name":"","type":"address","internalType":"address"}],"stateMutability":"view"},{"type":"function","name":"removeMinter","inputs":[{"name":"minter","type":"address","internalType":"address"}],"outputs":[{"name":"","type":"bool","internalType":"bool"}],"stateMutability":"nonpayable"},{"type":"function","name":"symbol","inputs":[],"outputs":[{"name":"","type":"string","internalType":"string"}],"stateMutability":"view"},{"type":"function","name":"totalSupply","inputs":[],"outputs":[{"name":"","type":"uint256","internalType":"uint256"}],"stateMutability":"view"},{"type":"function","name":"transfer","inputs":[{"name":"to","type":"address","internalType":"address"},{"name":"value","type":"uint256","internalType":"uint256"}],"outputs":[{"name":"","type":"bool","internalType":"bool"}],"stateMutability":"nonpayable"},{"type":"function","name":"transferFrom","inputs":[{"name":"from","type":"address","internalType":"address"},{"name":"to","type":"address","internalType":"address"},{"name":"value","type":"uint256","internalType":"uint256"}],"outputs":[{"name":"","type":"bool","internalType":"bool"}],"stateMutability":"nonpayable"},{"type":"function","name":"transferOwnership","inputs":[{"name":"newOwner","type":"address","internalType":"address"}],"outputs":[],"stateMutability":"nonpayable"},{"type":"function","name":"unBlacklist","inputs":[{"name":"_account","type":"address","internalType":"address"}],"outputs":[],"stateMutability":"nonpayable"},{"type":"function","name":"unpause","inputs":[],"outputs":[],"stateMutability":"nonpayable"},{"type":"function","name":"updateBlacklister","inputs":[{"name":"_newBlacklister","type":"address","internalType":"address"}],"outputs":[],"stateMutability":"nonpayable"},{"type":"function","name":"updateMasterMinter","inputs":[{"name":"_newMasterMinter","type":"address","internalType":"address"}],"outputs":[],"stateMutability":"nonpayable"},{"type":"function","name":"updatePauser","inputs":[{"name":"_newPauser","type":"address","internalType":"address"}],"outputs":[],"stateMutability":"nonpayable"},{"type":"event","name":"Approval","inputs":[{"name":"owner","type":"address","indexed":true,"internalType":"address"},{"name":"spender","type":"address","indexed":true,"internalType":"address"},{"name":"value","type":"uint256","indexed":false,"internalType":"uint256"}],"anonymous":false},{"type":"event","name":"Blacklisted","inputs":[{"name":"_account","type":"address","indexed":true,"internalType":"address"}],"anonymous":false},{"type":"event","name":"BlacklisterChanged","inputs":[{"name":"newBlacklister","type":"address","indexed":true,"internalType":"address"}],"anonymous":false},{"type":"event","name":"Burn","inputs":[{"name":"burner","type":"address","indexed":true,"internalType":"address"},{"name":"amount","type":"uint256","indexed":false,"internalType":"uint256"}],"anonymous":false},{"type":"event","name":"MasterMinterChanged","inputs":[{"name":"newMasterMinter","type":"address","indexed":true,"internalType":"address"}],"anonymous":false},{"type":"event","name":"Mint","inputs":[{"name":"minter","type":"address","indexed":true,"internalType":"address"},{"name":"to","type":"address","indexed":true,"internalType":"address"},{"name":"amount","type":"uint256","indexed":false,"internalType":"uint256"}],"anonymous":false},{"type":"event","name":"MinterConfigured","inputs":[{"name":"minter","type":"address","indexed":true,"internalType":"address"},{"name":"minterAllowedAmount","type":"uint256","indexed":false,"internalType":"uint256"}],"anonymous":false},{"type":"event","name":"MinterRemoved","inputs":[{"name":"oldMinter","type":"address","indexed":true,"internalType":"address"}],"anonymous":false},{"type":"event","name":"OwnershipTransferred","inputs":[{"name":"previousOwner","type":"address","indexed":false,"internalType":"address"},{"name":"newOwner","type":"address","indexed":false,"internalType":"address"}],"anonymous":false},{"type":"event","name":"Pause","inputs":[],"anonymous":false},{"type":"event","name":"PauserChanged","inputs":[{"name":"newAddress","type":"address","indexed":true,"internalType":"address"}],"anonymous":false},{"type":"event","name":"Transfer","inputs":[{"name":"from","type":"address","indexed":true,"internalType":"address"},{"name":"to","type":"address","indexed":true,"internalType":"address"},{"name":"value","type":"uint256","indexed":false,"internalType":"uint256"}],"anonymous":false},{"type":"event","name":"UnBlacklisted","inputs":[{"name":"_account","type":"address","indexed":true,"internalType":"address"}],"anonymous":false},{"type":"event","name":"Unpause","inputs":[],"anonymous":false}],"bytecode":{"object":"0x60806040526001805460ff60a01b191690556000600b5534801561002257600080fd5b5061002c33610031565b610053565b600080546001600160a01b0319166001600160a01b0392909216919091179055565b61237e806100626000396000f3fe608060405234801561001057600080fd5b50600436106101e55760003560e01c806370a082311161010f578063aa271e1a116100a2578063e5a6b10f11610071578063e5a6b10f14610751578063f2fde38b14610759578063f9f92be41461077f578063fe575a87146107a5576101e5565b8063aa271e1a146106cf578063ad38bf22146106f5578063bd1024301461071b578063dd62ed3e14610723576101e5565b806395d89b41116100de57806395d89b411461066d5780639fd0506d14610675578063a9059cbb1461067d578063aa20e1e4146106a9576101e5565b806370a08231146106115780638456cb59146106375780638a6db9c31461063f5780638da5cb5b14610665576101e5565b80633357162b1161018757806342966c681161015657806342966c681461059a5780634e44d956146105b7578063554bab3c146105e35780635c975abb14610609576101e5565b80633357162b1461036357806335d99f35146105425780633f4ba83a1461056657806340c10f191461056e576101e5565b80631a895266116101c35780631a895266146102c157806323b872dd146102e95780633092afd51461031f578063313ce56714610345576101e5565b806306fdde03146101ea578063095ea7b31461026757806318160ddd146102a7575b600080fd5b6101f26107cb565b6040805160208082528351818301528351919283929083019185019080838360005b8381101561022c578181015183820152602001610214565b50505050905090810190601f1680156102595780820380516001836020036101000a031916815260200191505b509250505060405180910390f35b6102936004803603604081101561027d57600080fd5b506001600160a01b038135169060200135610859565b604080519115158252519081900360200190f35b6102af61096d565b60408051918252519081900360200190f35b6102e7600480360360208110156102d757600080fd5b50356001600160a01b0316610973565b005b610293600480360360608110156102ff57600080fd5b506001600160a01b03813581169160208101359091169060400135610a05565b6102936004803603602081101561033557600080fd5b50356001600160a01b0316610c2a565b61034d610cd1565b6040805160ff9092168252519081900360200190f35b6102e7600480360361010081101561037a57600080fd5b81019060208101813564010000000081111561039557600080fd5b8201836020820111156103a757600080fd5b803590602001918460018302840111640100000000831117156103c957600080fd5b91908080601f016020809104026020016040519081016040528093929190818152602001838380828437600092019190915250929594936020810193503591505064010000000081111561041c57600080fd5b82018360208201111561042e57600080fd5b8035906020019184600183028401116401000000008311171561045057600080fd5b91908080601f01602080910402602001604051908101604052809392919081815260200183838082843760009201919091525092959493602081019350359150506401000000008111156104a357600080fd5b8201836020820111156104b557600080fd5b803590602001918460018302840111640100000000831117156104d757600080fd5b91908080601f0160208091040260200160405190810160405280939291908181526020018383808284376000920191909152509295505050813560ff1692505060208101356001600160a01b0390811691604081013582169160608201358116916080013516610cda565b61054a610ee6565b604080516001600160a01b039092168252519081900360200190f35b6102e7610ef5565b6102936004803603604081101561058457600080fd5b506001600160a01b038135169060200135610f76565b6102e7600480360360208110156105b057600080fd5b50356110ce565b610293600480360360408110156105cd57600080fd5b506001600160a01b0381351690602001356112e8565b6102e7600480360360208110156105f957600080fd5b50356001600160a01b03166113f1565b6102936114d3565b6102af6004803603602081101561062757600080fd5b50356001600160a01b03166114e3565b6102e76114fe565b6102af6004803603602081101561065557600080fd5b50356001600160a01b0316611585565b61054a6115a0565b6101f26115af565b61054a61160a565b6102936004803603604081101561069357600080fd5b506001600160a01b038135169060200135611619565b6102e7600480360360208110156106bf57600080fd5b50356001600160a01b0316611722565b610293600480360360208110156106e557600080fd5b50356001600160a01b0316611804565b6102e76004803603602081101561070b57600080fd5b50356001600160a01b0316611822565b61054a611904565b6102af6004803603604081101561073957600080fd5b506001600160a01b0381358116916020013516611913565b6101f261193e565b6102e76004803603602081101561076f57600080fd5b50356001600160a01b0316611999565b6102e76004803603602081101561079557600080fd5b50356001600160a01b0316611a7f565b610293600480360360208110156107bb57600080fd5b50356001600160a01b0316611b14565b6004805460408051602060026001851615610100026000190190941693909304601f810184900484028201840190925281815292918301828280156108515780601f1061082657610100808354040283529160200191610851565b820191906000526020600020905b81548152906001019060200180831161083457829003601f168201915b505050505081565b600154600090600160a01b900460ff16156108ae576040805162461bcd60e51b815260206004820152601060248201526f14185d5cd8589b194e881c185d5cd95960821b604482015290519081900360640190fd5b3360008181526003602052604090205460ff16156108fd5760405162461bcd60e51b81526004018080602001828103825260258152602001806123246025913960400191505060405180910390fd5b6001600160a01b038416600090815260036020526040902054849060ff16156109575760405162461bcd60e51b81526004018080602001828103825260258152602001806123246025913960400191505060405180910390fd5b610962338686611b32565b506001949350505050565b600b5490565b6002546001600160a01b031633146109bc5760405162461bcd60e51b815260040180806020018281038252602c81526020018061211d602c913960400191505060405180910390fd5b6001600160a01b038116600081815260036020526040808220805460ff19169055517f117e3210bb9aa7d9baff172026820255c6f6c30ba8999d1c2fd88e2848137c4e9190a250565b600154600090600160a01b900460ff1615610a5a576040805162461bcd60e51b815260206004820152601060248201526f14185d5cd8589b194e881c185d5cd95960821b604482015290519081900360640190fd5b3360008181526003602052604090205460ff1615610aa95760405162461bcd60e51b81526004018080602001828103825260258152602001806123246025913960400191505060405180910390fd5b6001600160a01b038516600090815260036020526040902054859060ff1615610b035760405162461bcd60e51b81526004018080602001828103825260258152602001806123246025913960400191505060405180910390fd5b6001600160a01b038516600090815260036020526040902054859060ff1615610b5d5760405162461bcd60e51b81526004018080602001828103825260258152602001806123246025913960400191505060405180910390fd5b6001600160a01b0387166000908152600a60209081526040808320338452909152902054851115610bbf5760405162461bcd60e51b81526004018080602001828103825260288152602001806121bf6028913960400191505060405180910390fd5b610bca878787611c1e565b6001600160a01b0387166000908152600a60209081526040808320338452909152902054610bf89086611dad565b6001600160a01b0388166000908152600a60209081526040808320338452909152902055600193505050509392505050565b6008546000906001600160a01b03163314610c765760405162461bcd60e51b81526004018080602001828103825260298152602001806120f46029913960400191505060405180910390fd5b6001600160a01b0382166000818152600c60209081526040808320805460ff19169055600d909152808220829055517fe94479a9f7e1952cc78f2d6baab678adc1b772d936c6583def489e524cb666929190a2506001919050565b60065460ff1681565b600854600160a01b900460ff1615610d235760405162461bcd60e51b815260040180806020018281038252602a815260200180612235602a913960400191505060405180910390fd5b6001600160a01b038416610d685760405162461bcd60e51b815260040180806020018281038252602f815260200180612190602f913960400191505060405180910390fd5b6001600160a01b038316610dad5760405162461bcd60e51b815260040180806020018281038252602981526020018061207c6029913960400191505060405180910390fd5b6001600160a01b038216610df25760405162461bcd60e51b815260040180806020018281038252602e815260200180612207602e913960400191505060405180910390fd5b6001600160a01b038116610e375760405162461bcd60e51b81526004018080602001828103825260288152602001806122ca6028913960400191505060405180910390fd5b8751610e4a9060049060208b0190611f09565b508651610e5e9060059060208a0190611f09565b508551610e72906007906020890190611f09565b506006805460ff191660ff8716179055600880546001600160a01b03199081166001600160a01b038781169190911790925560018054821686841617905560028054909116918416919091179055610ec981611df6565b50506008805460ff60a01b1916600160a01b179055505050505050565b6008546001600160a01b031681565b6001546001600160a01b03163314610f3e5760405162461bcd60e51b81526004018080602001828103825260228152602001806122a86022913960400191505060405180910390fd5b6001805460ff60a01b191690556040517f7805862f689e2f13df9f062ff482ad3ad112aca9e0847911ed832e158c525b3390600090a1565b60006001600160a01b038316610fbd5760405162461bcd60e51b81526004018080602001828103825260238152602001806120116023913960400191505060405180910390fd5b60008211610ffc5760405162461bcd60e51b81526004018080602001828103825260298152602001806120a56029913960400191505060405180910390fd5b600b546110099083611e18565b600b556001600160a01b03831660009081526009602052604090205461102f9083611e18565b6001600160a01b0384166000818152600960209081526040918290209390935580518581529051919233927fab8530f87dc9b59234c4623bf917212bb2536d647574c8e7e5da92c2ede0c9f89281900390910190a36040805183815290516001600160a01b038516916000917fddf252ad1be2c89b69c2b068fc378daa952ba7f163c4a11628f55a4df523b3ef9181900360200190a350600192915050565b600154600160a01b900460ff1615611120576040805162461bcd60e51b815260206004820152601060248201526f14185d5cd8589b194e881c185d5cd95960821b604482015290519081900360640190fd5b336000908152600c602052604090205460ff1661116e5760405162461bcd60e51b815260040180806020018281038252602181526020018061216f6021913960400191505060405180910390fd5b3360008181526003602052604090205460ff16156111bd5760405162461bcd60e51b81526004018080602001828103825260258152602001806123246025913960400191505060405180910390fd5b33600090815260096020526040902054826112095760405162461bcd60e51b8152600401808060200182810382526029815260200180611fe86029913960400191505060405180910390fd5b828110156112485760405162461bcd60e51b81526004018080602001828103825260268152602001806121496026913960400191505060405180910390fd5b600b546112559084611dad565b600b556112628184611dad565b33600081815260096020908152604091829020939093558051868152905191927fcc16f5dbb4873280815c1ee09dbd06736cffcc184412cf7a71a0fdb75d397ca592918290030190a260408051848152905160009133917fddf252ad1be2c89b69c2b068fc378daa952ba7f163c4a11628f55a4df523b3ef9181900360200190a3505050565b600154600090600160a01b900460ff161561133d576040805162461bcd60e51b815260206004820152601060248201526f14185d5cd8589b194e881c185d5cd95960821b604482015290519081900360640190fd5b6008546001600160a01b031633146113865760405162461bcd60e51b81526004018080602001828103825260298152602001806120f46029913960400191505060405180910390fd5b6001600160a01b0383166000818152600c60209081526040808320805460ff19166001179055600d825291829020859055815185815291517f46980fca912ef9bcdbd36877427b6b90e860769f604e89c0e67720cece530d209281900390910190a250600192915050565b6000546001600160a01b0316331461143e576040805162461bcd60e51b815260206004820181905260248201526000805160206121e7833981519152604482015290519081900360640190fd5b6001600160a01b0381166114835760405162461bcd60e51b8152600401808060200182810382526028815260200180611fc06028913960400191505060405180910390fd5b600180546001600160a01b0319166001600160a01b0383811691909117918290556040519116907fb80482a293ca2e013eda8683c9bd7fc8347cfdaeea5ede58cba46df502c2a60490600090a250565b600154600160a01b900460ff1681565b6001600160a01b031660009081526009602052604090205490565b6001546001600160a01b031633146115475760405162461bcd60e51b81526004018080602001828103825260228152602001806122a86022913960400191505060405180910390fd5b6001805460ff60a01b1916600160a01b1790556040517f6985a02210a168e66602d3235cb6db0e70f92b3ba4d376a33c0f3d9434bff62590600090a1565b6001600160a01b03166000908152600d602052604090205490565b6000546001600160a01b031690565b6005805460408051602060026001851615610100026000190190941693909304601f810184900484028201840190925281815292918301828280156108515780601f1061082657610100808354040283529160200191610851565b6001546001600160a01b031681565b600154600090600160a01b900460ff161561166e576040805162461bcd60e51b815260206004820152601060248201526f14185d5cd8589b194e881c185d5cd95960821b604482015290519081900360640190fd5b3360008181526003602052604090205460ff16156116bd5760405162461bcd60e51b81526004018080602001828103825260258152602001806123246025913960400191505060405180910390fd5b6001600160a01b038416600090815260036020526040902054849060ff16156117175760405162461bcd60e51b81526004018080602001828103825260258152602001806123246025913960400191505060405180910390fd5b610962338686611c1e565b6000546001600160a01b0316331461176f576040805162461bcd60e51b815260206004820181905260248201526000805160206121e7833981519152604482015290519081900360640190fd5b6001600160a01b0381166117b45760405162461bcd60e51b815260040180806020018281038252602f815260200180612190602f913960400191505060405180910390fd5b600880546001600160a01b0319166001600160a01b0383811691909117918290556040519116907fdb66dfa9c6b8f5226fe9aac7e51897ae8ee94ac31dc70bb6c9900b2574b707e690600090a250565b6001600160a01b03166000908152600c602052604090205460ff1690565b6000546001600160a01b0316331461186f576040805162461bcd60e51b815260206004820181905260248201526000805160206121e7833981519152604482015290519081900360640190fd5b6001600160a01b0381166118b45760405162461bcd60e51b81526004018080602001828103825260328152602001806122f26032913960400191505060405180910390fd5b600280546001600160a01b0319166001600160a01b0383811691909117918290556040519116907fc67398012c111ce95ecb7429b933096c977380ee6c421175a71a4a4c6c88c06e90600090a250565b6002546001600160a01b031681565b6001600160a01b039182166000908152600a6020908152604080832093909416825291909152205490565b6007805460408051602060026001851615610100026000190190941693909304601f810184900484028201840190925281815292918301828280156108515780601f1061082657610100808354040283529160200191610851565b6000546001600160a01b031633146119e6576040805162461bcd60e51b815260206004820181905260248201526000805160206121e7833981519152604482015290519081900360640190fd5b6001600160a01b038116611a2b5760405162461bcd60e51b81526004018080602001828103825260268152602001806120346026913960400191505060405180910390fd5b600054604080516001600160a01b039283168152918316602083015280517f8be0079c531659141344cd1fd0a4f28419497f9722a3daafe3b4186f6b6457e09281900390910190a1611a7c81611df6565b50565b6002546001600160a01b03163314611ac85760405162461bcd60e51b815260040180806020018281038252602c81526020018061211d602c913960400191505060405180910390fd5b6001600160a01b038116600081815260036020526040808220805460ff19166001179055517fffa4e6181777692565cf28528fc88fd1516ea86b56da075235fa575af6a4b8559190a250565b6001600160a01b031660009081526003602052604090205460ff1690565b6001600160a01b038316611b775760405162461bcd60e51b81526004018080602001828103825260248152602001806122846024913960400191505060405180910390fd5b6001600160a01b038216611bbc5760405162461bcd60e51b815260040180806020018281038252602281526020018061205a6022913960400191505060405180910390fd5b6001600160a01b038084166000818152600a6020908152604080832094871680845294825291829020859055815185815291517f8c5be1e5ebec7d5bd14f71427d1e84f3dd0314c0f7b2291e5b200ac8c7c3b9259281900390910190a3505050565b6001600160a01b038316611c635760405162461bcd60e51b815260040180806020018281038252602581526020018061225f6025913960400191505060405180910390fd5b6001600160a01b038216611ca85760405162461bcd60e51b8152600401808060200182810382526023815260200180611f9d6023913960400191505060405180910390fd5b6001600160a01b038316600090815260096020526040902054811115611cff5760405162461bcd60e51b81526004018080602001828103825260268152602001806120ce6026913960400191505060405180910390fd5b6001600160a01b038316600090815260096020526040902054611d229082611dad565b6001600160a01b038085166000908152600960205260408082209390935590841681522054611d519082611e18565b6001600160a01b0380841660008181526009602090815260409182902094909455805185815290519193928716927fddf252ad1be2c89b69c2b068fc378daa952ba7f163c4a11628f55a4df523b3ef92918290030190a3505050565b6000611def83836040518060400160405280601e81526020017f536166654d6174683a207375627472616374696f6e206f766572666c6f770000815250611e72565b9392505050565b600080546001600160a01b0319166001600160a01b0392909216919091179055565b600082820183811015611def576040805162461bcd60e51b815260206004820152601b60248201527f536166654d6174683a206164646974696f6e206f766572666c6f770000000000604482015290519081900360640190fd5b60008184841115611f015760405162461bcd60e51b81526004018080602001828103825283818151815260200191508051906020019080838360005b83811015611ec6578181015183820152602001611eae565b50505050905090810190601f168015611ef35780820380516001836020036101000a031916815260200191505b509250505060405180910390fd5b505050900390565b828054600181600116156101000203166002900490600052602060002090601f016020900481019282601f10611f4a57805160ff1916838001178555611f77565b82800160010185558215611f77579182015b82811115611f77578251825591602001919060010190611f5c565b50611f83929150611f87565b5090565b5b80821115611f835760008155600101611f8856fe45524332303a207472616e7366657220746f20746865207a65726f20616464726573735061757361626c653a206e65772070617573657220697320746865207a65726f206164647265737346696174546f6b656e3a206275726e20616d6f756e74206e6f742067726561746572207468616e203046696174546f6b656e3a206d696e7420746f20746865207a65726f20616464726573734f776e61626c653a206e6577206f776e657220697320746865207a65726f206164647265737345524332303a20617070726f766520746f20746865207a65726f206164647265737346696174546f6b656e3a206e65772070617573657220697320746865207a65726f206164647265737346696174546f6b656e3a206d696e7420616d6f756e74206e6f742067726561746572207468616e203045524332303a207472616e7366657220616d6f756e7420657863656564732062616c616e636546696174546f6b656e3a2063616c6c6572206973206e6f7420746865206d61737465724d696e746572426c61636b6c69737461626c653a2063616c6c6572206973206e6f742074686520626c61636b6c697374657246696174546f6b656e3a206275726e20616d6f756e7420657863656564732062616c616e636546696174546f6b656e3a2063616c6c6572206973206e6f742061206d696e74657246696174546f6b656e3a206e6577206d61737465724d696e74657220697320746865207a65726f206164647265737345524332303a207472616e7366657220616d6f756e74206578636565647320616c6c6f77616e63654f776e61626c653a2063616c6c6572206973206e6f7420746865206f776e657246696174546f6b656e3a206e657720626c61636b6c697374657220697320746865207a65726f206164647265737346696174546f6b656e3a20636f6e747261637420697320616c726561647920696e697469616c697a656445524332303a207472616e736665722066726f6d20746865207a65726f206164647265737345524332303a20617070726f76652066726f6d20746865207a65726f20616464726573735061757361626c653a2063616c6c6572206973206e6f74207468652070617573657246696174546f6b656e3a206e6577206f776e657220697320746865207a65726f2061646472657373426c61636b6c69737461626c653a206e657720626c61636b6c697374657220697320746865207a65726f2061646472657373426c61636b6c69737461626c653a206163636f756e7420697320626c61636b6c6973746564a26469706673582212201ca16280cff0e1e8e287b4356aac789e23ce775a16f33cfbdec67322aefdfa7164736f6c634300060c0033","linkReferences":{}},"methodIdentifiers":{"allowance(address,address)":"dd62ed3e","approve(address,uint256)":"095ea7b3","balanceOf(address)":"70a08231","blacklist(address)":"f9f92be4","blacklister()":"bd102430","burn(uint256)":"42966c68","configureMinter(address,uint256)":"4e44d956","currency()":"e5a6b10f","decimals()":"313ce567","initialize(string,string,string,uint8,address,address,address,address)":"3357162b","isBlacklisted(address)":"fe575a87","isMinter(address)":"aa271e1a","masterMinter()":"35d99f35","mint(address,uint256)":"40c10f19","minterAllowance(address)":"8a6db9c3","name()":"06fdde03","owner()":"8da5cb5b","pause()":"8456cb59","paused()":"5c975abb","pauser()":"9fd0506d","removeMinter(address)":"3092afd5","symbol()":"95d89b41","totalSupply()":"18160ddd","transfer(address,uint256)":"a9059cbb","transferFrom(address,address,uint256)":"23b872dd","transferOwnership(address)":"f2fde38b","unBlacklist(address)":"1a895266","unpause()":"3f4ba83a","updateBlacklister(address)":"ad38bf22","updateMasterMinter(address)":"aa20e1e4","updatePauser(address)":"554bab3c"},"id":10}